:020000040800F2
:1000000000000220B5310008053200080532000862
:100010000532000805320008053200080000000023
:10002000000000000000000000000000493100084E
:1000300005320008000000004B3100084D31000877
:1000400005320008053200080532000805320008B4
:1000500005320008053200080532000805320008A4
:100060000532000805320008053200080532000894
:100070000532000805320008053200080532000884
:100080000532000805320008593100080532000821
:100090000532000805320008053200080532000864
:1000A0000532000805320008053200080532000854
:1000B0000532000805320008053200080532000844
:1000C0000532000805320008053200080532000834
:1000D0000532000805320008053200080532000824
:1000E0000532000805320008053200080532000814
:1000F0000532000805320008053200080532000804
:1001000005320008053200080532000805320008F3
:1001100005320008053200080532000805320008E3
:1001200005320008053200080532000805320008D3
:1001300005320008053200080532000805320008C3
:1001400005320008053200080532000805320008B3
:1001500005320008053200080532000805320008A3
:100160000532000805320008053200080532000893
:1001700005320008053200080532000800000000C2
:080180000532000805320008F9
:1001880010B5054C237833B9044B13B10448AFF3C9
:1001980000800123237010BD14040020000000001B
:1001A8005032000808B5034B1BB103490348AFF3AD
:1001B800008008BD0000000018040020503200082C
:1001C80053B94AB9002908BF00281CBF4FF0FF31B6
:1001D8004FF0FF3000F072B9ADF1080C6DE904CEB4
:1001E80000F006F8DDF804E0DDE9022304B070470A
:1001F8002DE9F047089E04468846002B4BD18A42D9
:10020800154667D9B2FA82F24AB1C2F1200701FA5B
:1002180002F320FA07F7954047EA030894404FEAAB
:10022800154E230CB8FBFEF71FFA85FC0EFB17884A
:1002380043EA084307FB0CF1994209D9EB1807F187
:10024800FF3080F01B81994240F21881023F2B4415
:100258005B1AA4B2B3FBFEF00EFB103344EA03446E
:1002680000FB0CFCA44509D92C1900F1FF3380F0E0
:100278000781A44540F2048102382C4440EA074033
:10028800A4EB0C0400271EB1D4400023C6E90043A8
:100298003946BDE8F0878B4209D9002E00F0EB8083
:1002A8000027C6E9000138463946BDE8F087B3FAA9
:1002B80083F7002F47D18B4202D3824200F2FA80A3
:1002C800841A61EB030301209846002EE0D0C6E9AA
:1002D8000048DDE702B9FFDEB2FA82F2002A40F0F8
:1002E8008F80491B4FEA154E1FFA85F80127B1FB8D
:1002F800FEFC230C0EFB1C1143EA014308FB0CF126
:10030800994207D9EB180CF1FF3002D2994200F25A
:10031800CD808446591AA3B2B1FBFEF00EFB10142F
:1003280043EA044408FB00F8A04507D92C1900F15A
:10033800FF3302D2A04500F2B6801846A4EB0804A9
:1003480040EA0C409FE7C7F1200CBB4022FA0CFEA4
:100358004EEA030E01FA07F420FA0CF521FA0CF321
:100368004FEA1E482543B3FBF8F92C0C08FB193358
:100378001FFA8EFA44EA034309FB0AF49C4202FA84
:1003880007F200FA07F10BD91EEB030309F1FF305E
:1003980080F087809C4240F28480A9F1020973446E
:1003A8001B1BADB2B3FBF8F008FB103345EA03445E
:1003B80000FB0AFAA24508D91EEB040400F1FF333A
:1003C8006BD2A24569D90238744440EA0940A0FBBF
:1003D8000289A4EB0A044C45C2464B4654D351D07B
:1003E800002E69D0B1EB0A0564EB030404FA0CFC97
:1003F800FD40FC404CEA0505C6E90054002747E7E4
:10040800C2F1200320FA03F7954001FA02F021FA1D
:1004180003F34FEA154E3843010CB3FBFEF71FFAFE
:1004280085F80EFB173341EA034107FB08F38B42BB
:1004380004FA02F407D9691807F1FF3C2FD28B425E
:100448002DD9023F2944CB1A81B2B3FBFEF00EFB33
:10045800103341EA034100FB08F38B4207D96918BE
:1004680000F1FF3C17D28B4215D902382944C91A2A
:1004780040EA07473BE73746304609E70746E7E6DD
:100488001846FBE64145ABD2B8EB020A69EB0E020F
:1004980001381346A4E76046E9E7184695E767463A
:1004A800D1E781467CE702382C4447E7ACF1020CDF
:1004B8002B442FE7384608E73746E9E6704700BF80
:1004C80010B504460E4B18784FF47A73B3FBF0F36B
:1004D8000C4A1068B0FBF3F000F04EFB68B90F2C23
:1004E80001D901200AE0002221464FF0FF3000F038
:1004F80003FB034B5C60002000E0012010BD00BF3F
:10050800000000201004002008B50B4B1A6842F4C4
:1005180000721A601A6842F480621A601A6842F41B
:1005280080721A60032000F0D5FA0020FFF7C8FF98
:1005380002F01CFD002008BD003C0240034A11687F
:10054800034B1B780B441360704700BF4004002026
:1005580000000020014B1868704700BF40040020CD
:10056800494B5A6822F440325A605A6841680A4333
:100578005A600268536823F48073536002685368B2
:10058800016943EA012353600268536823F040730A
:1005980053600268536881680B435360026893682C
:1005A80023F40063936002689368C1680B43936007
:1005B800826A364B9A4249D00268936823F0706386
:1005C800936002689368816A0B439360026893683A
:1005D80023F04053936002689368C16A0B439360A9
:1005E8000268936823F00203936002689368816944
:1005F80043EA41039360036A002B32D102685368CF
:1006080023F4006353600268D36A23F47003D3624F
:100618000168CB6AC269013A43EA0253CB620268B5
:10062800936823F40073936002689368016B43EA4C
:10063800412393600268936823F48063936002689F
:100648009368416943EA812393607047026893681D
:1006580023F0706393600268936823F040539360BB
:10066800BEE70268536843F4006353600268536846
:1006780023F46043536001684B68426A013A43EAD5
:1006880042334B60BFE700BF002301400100000F69
:1006980030B310B50446036C43B1236C13F0100F4C
:1006A8000AD00120002384F83C3010BD436480F850
:1006B8003C3002F0A5FCF0E7236C23F4885323F0C8
:1006C800020343F0020323642046FFF749FF00209A
:1006D8006064236C23F0030343F001032364E1E720
:1006E8000120704782B00023019390F83C30012B21
:1006F8006AD0012380F83C3003689A6812F0010F31
:1007080013D19A6842F001029A60344B1B68344A4C
:10071800A2FB03239B0C03EB4303019302E0019B21
:10072800013B0193019B002BF9D10268936813F0F8
:10073800010F4BD0036C23F4E06323F0010343F46F
:1007480080730364536813F4806F05D0036C23F43B
:10075800405343F480530364036C13F4805F20D048
:10076800436C23F006034364002380F83C306FF0A9
:10077800220313600268536843F0806343F0200348
:100788005360184B5B6813F01F0F0DD103689A680C
:1007980012F0405F1DD19A6842F080429A600020B2
:1007A80015E000234364DFE703680F4A934201D052
:1007B80000200CE09A6812F0405F0CD19A6842F071
:1007C80080429A60002002E0022000E0002002B08F
:1007D80070470020FBE70020F9E700BF1004002065
:1007E80083DE1B430023014000200140704770470F
:1007F80038B5044602681168536811F0020F2FD00B
:1008080003F0200363B3036C13F0100F03D1036CE0
:1008180043F400730364936813F0405F19D1A3692C
:10082800BBB9D36A13F4700F03D0936813F4806FC5
:100838000FD1536823F020035360236C23F4807393
:100848002364236C13F4805F03D1236C43F001030A
:100858002364204602F0E2F823686FF012021A605F
:10086800236819685A6802F0800211F0040F36D024
:10087800002A34D0226C12F0100F03D1226C42F4FB
:10088800005222649A6812F4401F21D19A6B12F424
:10089800401F03D09A6812F4806F19D15A6812F475
:1008A800806F15D19A6812F0405F11D1A2697AB9A8
:1008B8005A6822F080025A60236C23F48053236420
:1008C800236C13F4807F03D1236C43F0010323646A
:1008D800204600F0FDF823686FF00C021A602268C9
:1008E8001168536803F0400311F0010F04D01BB1E5
:1008F800136813F0010F09D122681168536803F0D7
:10090800806311F0200F00D063B938BD236C43F425
:10091800803323642046FFF769FF23686FF00102E4
:100928001A60E9E7636C43F0020363646FF0200523
:1009380015602046FFF75BFF23681D60E5E70000B0
:1009480030B482B00023019390F83C30012B00F0C2
:10095800B780012380F83C300B68092B3ED9056825
:10096800EA689BB203EB43031E3B072404FA03F334
:1009780022EA0303EB600568EA688C680B8803EBDE
:1009880043031E3B04FA03F31343EB604B68062B47
:100998003AD805686A6B03EB8303053B1F2404FA06
:1009A80003F322EA03036B6305686A6B4B6803EB86
:1009B8008303053B0C8804FA03F313436B63026853
:1009C800404B9A4250D002683E4B9A4255D0002381
:1009D80080F83C30184602B030BC704705682A6978
:1009E8009BB203EB4303072404FA03F322EA03034D
:1009F8002B6105682A698C680B8803EB430304FAAA
:100A080003F313432B61C1E70C2B16D805682A6B37
:100A180003EB8303233B1F2404FA03F322EA0303B3
:100A28002B6305682A6B4B6803EB8303233B0C8815
:100A380004FA03F313432B63C1E70568EA6A03EB7F
:100A48008303413B1F2404FA03F322EA0303EB6206
:100A58000568EA6A4B6803EB8303413B0C8804FA98
:100A680003F31343EB62AAE70B68122BABD1164AC8
:100A7800536843F480035360A5E70B68103B012BD0
:100A8800A5D8114A536843F4000353600B68102B30
:100A98009DD10E4B1B6802F1467202F52E3202F20E
:100AA8008332A2FB03239B0C03EB83035A000192BE
:100AB80002E0019B013B0193019B002BF9D186E7E2
:100AC800022088E700200140002301401004002094
:100AD80070470000074AD36823F4E0631B041B0C2B
:100AE800000200F4E060184340F0BF6040F40030BA
:100AF800D060704700ED00E030B4174BDB68C3F3FB
:100B08000223C3F10704042C28BF04241D1D062D4D
:100B180018D9033B4FF0FF3505FA04F421EA040124
:100B2800994005FA03F322EA0303194300280BDB73
:100B38000901C9B200F1604000F5614080F8001376
:100B480030BC70470023E5E700F00F000901C9B287
:100B5800024B1954F4E700BF00ED00E014ED00E08B
:100B680000F01F02400901239340024A42F8203056
:100B7800704700BF00E100E00138B0F1807F0AD281
:100B8800064B5860064AF02182F82310002098602E
:100B980007221A6070470120704700BF10E000E08C
:100BA80000ED00E0042805D0054A136823F004038B
:100BB80013607047024A136843F0040313607047D8
:100BC80010E000E0704708B5FFF7FCFF08BD000023
:100BD80000230F2B00F2D780F0B482B039E007224F
:100BE80000E00022B2403A430234674E46F824201F
:100BF800664A1468EA4302EA04064F6817F4803F1D
:100C080001D045EA0406614C2660646802EA0406DD
:100C18004F6817F4003F01D045EA04065B4C666054
:100C2800A46802EA04064F6817F4801F01D045EA59
:100C38000406564CA660E46822404E6816F4001F6D
:100C480001D045EA0402514CE26001330F2B00F257
:100C5800978001229A400C6804EA0205AA42F4D15E
:100C68004C68022C01D0122C10D1DE08083650F83E
:100C780026C003F00704A7000F24BC402CEA040C8C
:100C88000C69BC4044EA0C0440F8264004685F0044
:100C98000326BE40F64306EA040C4C6804F003043D
:100CA800BC4044EA0C0404604C6804F1FF3CBCF10D
:100CB800010F03D9112C01D0122C10D1846806EA37
:100CC800040CCC68BC4044EA0C048460446824EA00
:100CD80002024C68C4F300149C4014434460C26888
:100CE80016408A68BA403243C2604A6812F0805F90
:100CF800ABD000220192264A546C44F480445464D8
:100D0800526C02F480420192019A9C08A61C1E4A69
:100D180052F8267003F0030296000F22B24027EA29
:100D280002071C4A90423FF45CAF02F58062904291
:100D38001AD002F58062904218D002F58062904283
:100D480016D002F58062904214D002F5806290427B
:100D580012D002F58062904210D002F58062904273
:100D68003FF43DAF08223DE701223BE7022239E785
:100D7800032237E7042235E7052233E7062231E765
:100D880002B0F0BC7047704700380140003C014099
:100D9800003802400000024012B90904816170471E
:100DA8008161704703685A6912F4806F0DD06FF43F
:100DB80080625A610423036400230363202280F8BD
:100DC8003D2080F83C300120704700207047F8B57E
:100DD80006460C4617461D461EE02DB1FFF7BAFB26
:100DE800069BC01AA84217D900233363202286F82D
:100DF8003D2086F83E3086F83C3003201AE0336800
:100E08005B6924EA03039BB2B3FA83F35B099F424D
:100E18000FD1B5F1FF3FE0D1C4F30743012BEED06A
:100E280033689B6924EA03039BB2B3FA83F35B0933
:100E3800EDE70020F8BDF8B504460D4616461F46F6
:100E480032E01A6842F400721A6023686FF4806214
:100E58005A610423236400232363202284F83D205D
:100E680084F83C3001202DE026B1FFF773FBC01B4E
:100E7800B04219D900232363202284F83D2084F846
:100E88003C3003201EE023685B6925EA03039BB21C
:100E9800003318BF0123A3B123685A6912F4806F85
:100EA800CFD1B6F1FF3FDFD1C5F30743012BEAD01D
:100EB80023689B6925EA03039BB2003318BF01230B
:100EC800E9E70020F8BD0000F0B583B004460D4600
:100ED80016461F46C36A042B0DD0012B0BD013F501
:100EE800803F08D0036B122B0AD10268136843F4C1
:100EF8008073136004E02268136843F480731360FE
:100F08000097334600224FF001112046FFF75FFF9C
:100F180058BB2369B3F5804F10D1236805F0FE054F
:100F28001D613B46324615492046FFF784FF0346BC
:100F3800E0B1236C042B1ED1012317E0EB112268CA
:100F480003F0060343F0F00313613B4632460C49B5
:100F58002046FFF770FF20B1236C042B09D1012331
:100F680004E02368EDB21D61DBE70323184603B0F4
:100F7800F0BD0323FAE70323F8E700BF02000100EE
:100F8800080001002DE9F04184B004460D461646DC
:100F98001F46C26A01680B6843F480630B60042A29
:100FA8000DD0012A0BD012F5803F08D0036B112B0E
:100FB8000AD10268136843F48073136004E022685E
:100FC800136843F4807313600097334600224FF090
:100FD80001112046FFF7FBFE002852D12369B3F523
:100FE800804F12D1236845F00105EDB21D613B46E3
:100FF80032462A492046FFF71EFF0346002841D003
:10100800236C042B48D101233CE04FEAE51808F093
:101018000608236848F0F0021A613B463246204928
:101028002046FFF708FF20B1236C042B2ED10123A3
:1010380028E02368EDB21D613B4632461749204639
:10104800FFF7F9FE20B1236C042B21D1012319E00D
:1010580000220392236859690391996903910399BE
:10106800196841F480711960009733464FF00111F7
:101078002046FFF7ACFE68B9226848F0F103136117
:10108800B5E70323184604B0BDE8F0810323F9E768
:101098000323F7E70323F5E70323F3E7020001003F
:1010A8000800010070B504460D46164623685B69C2
:1010B80013F0800F19D12046FFF774FEB8B9B5F1C7
:1010C800FF3FF3D025B1FFF745FA801BA842EDD9C1
:1010D800236C43F02003236400232363202284F835
:1010E8003D2084F83C30032000E0002070BD012042
:1010F800FCE770B504460D46164623685B6913F095
:10110800040F19D12046FFF74DFEB8B9B5F1FF3FDE
:10111800F3D025B1FFF71EFA801BA842EDD9236C46
:1011280043F02003236400232363202284F83D2016
:1011380084F83C30032000E0002070BD0120FCE76B
:1011480070B505460C4616462B685A6912F0400FD2
:1011580022D15A6912F0100F11D124B1FFF7FAF910
:10116800801BA042F0D92B6C43F020032B64202372
:1011780085F83D30002385F83C30032070BD6FF0C2
:1011880010025A6100232B642B63202285F83D202E
:1011980085F83C300120F1E70020EFE7002800F057
:1011A800828010B5044690F83D30002B41D02423AE
:1011B80084F83D302268136823F00103136001F0BE
:1011C80057F93A4BA3FB00239B0C226853606168D4
:1011D800374A914232D80133226813626368344A2D
:1011E800934235D85B00B0FBF3F0C0F30B03032B3D
:1011F80000D804202368D861E369216A22680B4378
:1012080013602369E16822680B4393606369A169ED
:1012180022680B43D3602268136843F0010313600C
:1012280000202064202384F83D30206384F83E00A9
:1012380010BD80F83C3001F00FFFB8E74FF496720C
:1012480002FB03F31B4AA2FB03239B090133C3E7F9
:10125800A16889B903EB4302B0FBF2F2C2F30B02B7
:10126800B2FA82F25209E2B991B903EB4303B0FB37
:10127800F3F040F40040BDE703EB830202EB820287
:10128800B0FBF2F2C2F30B02B2FA82F25209EAE7B9
:1012980003EB830303EB8303B0FBF3F040F440401C
:1012A800A8E70120A6E70120704700BF83DE1B43A3
:1012B800A0860100D34D62102DE9F04184B00446A8
:1012C8000E4690461F46FFF745F994F83D30DBB2CD
:1012D800202B04D00226304604B0BDE8F081054634
:1012E80000901923012254492046FFF770FD002879
:1012F80040F0998094F83C30012B00F0968001234F
:1013080084F83C3023681A6812F0010F03D11A6878
:1013180042F001021A602268136823F40063136024
:10132800212384F83D30102384F83E3000232364C1
:10133800C4F824806785A3F58033E362638D238531
:101348002B460A9A31462046FFF7BEFD064660B195
:10135800236C042B04D1002384F83C300126BAE71F
:10136800002384F83C300326B5E700230393236861
:101378005A6903929B690393039B10E0236C042B27
:1013880055D12268136843F4007313600126A2E75D
:101398002A460A992046FFF7ACFE00282BD1238D58
:1013A800002B32D02A460A992046FFF77BFE0028F8
:1013B800E4D1636A5A1C626222681B781361638DE8
:1013C800013B9BB26385238D013B9BB22385226839
:1013D800516911F0040FDBD0002BD9D0636A591C76
:1013E80061621B781361638D013B9BB26385238D1A
:1013F800013B2385CCE7236C042B1AD122681368A0
:1014080043F400731360012665E72268136843F408
:1014180000731360202384F83D30002384F83E30A5
:1014280084F83C3057E7022655E7022653E703269F
:1014380051E703264FE700BF020010002DE9F041F5
:1014480086B004460E4690461F46FFF783F894F888
:101458003D30DBB2202B04D00226304606B0BDE872
:10146800F08105460090192301228C492046FFF798
:10147800AEFC002840F04B8194F83C30012B00F082
:101488004881012384F83C3023681A6812F0010F60
:1014980003D11A6842F001021A602268136823F423
:1014A80000631360222384F83D30102384F83E3013
:1014B80000232364C4F824806785A3F58033E3629E
:1014C800638D23852B460C9A31462046FFF75AFD3B
:1014D800064660B1236C042B04D1002384F83C3009
:1014E8000126BAE7002384F83C300326B5E7238DAC
:1014F8005BB9029323685A6902929A690292029A26
:101508001A6842F400721A607AE0012B0FD0022B9D
:101518001FD02268136843F4806313600023059387
:1015280023685A6905929B690593059B68E02268C0
:10153800136823F4806313600023039323685A69B4
:1015480003929A690392039A1A6842F400721A6025
:1015580056E02268136823F48063136022681368D6
:1015680043F4006313600023049323685A690492C8
:101578009B690493049B43E02A460C992046FFF795
:10158800DFFD68B923681A69636A591C61621A70B9
:10159800238D013B2385638D013B9BB263852FE03F
:1015A800236C202B01D0012657E7032655E7009529
:1015B8000C9B00223A492046FFF709FC002840F01E
:1015C800AA802268136843F40073136023681A69B9
:1015D800636A591C61621A70238D013B2385638DF0
:1015E800013B9BB2638523681A69636A591C61626F
:1015F8001A70238D013B2385638D013B9BB2638564
:10160800238D002B7AD0032B4CD8012BB4D0022B7E
:10161800CDD000950C9B002221492046FFF7D7FB2F
:1016280000287AD12268136823F480631360236842
:101638001A69636A591C61621A70238D013B2385FC
:10164800638D013B9BB2638500950C9B0022144976
:101658002046FFF7BCFB002861D12268136843F4D9
:101668000073136023681A69636A591C61621A70EF
:10167800238D013B2385638D013B9BB263852368E2
:101688001A69636A591C61621A70238D013B2385AC
:10169800638D013B9BB26385B2E700BF0200100077
:1016A800040001002A460C992046FFF749FDF0B9CD
:1016B80023681A69636A591C61621A70238D013B99
:1016C8002385638D013B9BB2638523685A6912F0B9
:1016D800040F95D01A69636A591C61621A70238DC8
:1016E800013B2385638D013B9BB2638588E7236CAF
:1016F800202B01D00126B0E60326AEE6202384F88D
:101708003D30002384F83E3084F83C30A5E60226BC
:10171800A3E60226A1E603269FE603269DE6032606
:101728009BE600BF2DE9F04105460F4616461C46CC
:10173800FEF710FF804614E02CB1FEF70BFFA0EB7C
:101748000800A0420DD9012385F84130002385F80F
:10175800403003200DE00123B34209D0B4F1FF3F2C
:10176800EAD12B689B6837EA0303F4D00023F3E738
:101778000020BDE8F081704708B5436A9A1C4262B0
:1017880002681B88D360438D013B9BB24385438D20
:101798009BB203B108BD0268536823F0A0031B0481
:1017A8001B0C5360012380F84130FFF7E4FFF1E799
:1017B800704708B50368DA68C36A991CC1621A8061
:1017C800438E013B9BB24386438E9BB203B108BD57
:1017D8000268536823F060031B041B0C5360012349
:1017E80080F84130FFF7E4FFF1E77047002800F088
:1017F800BB8070B50446022580F841505B4B4363BB
:1018080001F054FC2268D36923F47B6323F00F03AF
:10181800D36123681D622368DD696369022B5BD08D
:10182800E368002B3ED02026A368202B00D8760042
:10183800012000F0D7FE2369B3F5007F34D0B0FB58
:10184800F6F000EB800043006269B3FBF2F3053366
:10185800474AA2FB0323DB0803F001029B1AC3F3E8
:101868004F0311029A1EFD2A38D822690A432168BB
:1018780013430B626268A168E068238B03439BB241
:101888000B439BB213439BB243F400631D4323688D
:10189800DD61236A012B2AD000206064012384F8CB
:1018A800413070BD1026BFE7E36853B1B600B0FB06
:1018B800F6F000EB800043006269B3FBF2F30533F6
:1018C800C6E7F600B0FBF6F000EB80004300626963
:1018D800B3FBF2F30533BBE70021C3E7636C43F0C6
:1018E800100363642046FFF780FF0120D9E7214BEE
:1018F80063632268204B9A421ED04FF04022D3697E
:1019080023F47B6323F00F03D36122681A4B9A42B6
:1019180014D04FF0402302221A622268164B9A42D2
:101928000FD04FF04022D0696168B1F5007F0AD02E
:10193800C1B94FF4807608E0104AE0E7A3F5806368
:10194800E9E70E4AEFE74FF48076A168E568238B54
:101958002B439BB20B439BB2334343F400630343D3
:10196800D36199E70026F0E701207047891900083C
:10197800CDCCCCCC9D1C0008003800400034004081
:1019880010B584B0044602689368039390F8413018
:10199800DBB2042B06D094F84130DBB2032B2ED0F7
:1019A80004B010BD039B13F0010F03D0536813F06C
:1019B800400F21D1039B13F0400FECD023685A68E5
:1019C80012F0200FE7D05A6822F060021204120CBD
:1019D8005A60002301932368DA6801929B68019397
:1019E800019B012384F84130636C43F00203636474
:1019F8002046FFF7FAFECEE7FFF7DBFEDAE7039BA8
:101A080013F0020F04D023685B6813F0800F1FD116
:101A1800039B13F0080FC3D023685A6812F0200FF5
:101A2800BED05A6822F0A0021204120C5A60002399
:101A3800029323689B680293029B012384F8413038
:101A4800636C43F0040363642046FFF7CEFEA7E708
:101A58002046FFF791FEDBE700296DD070B582B014
:101A680004461D460846002A68D094F84130DBB287
:101A7800012B66D12368DB6903F00703032B04D02D
:101A8800052B02D02285628503E0520092B222859E
:101A9800628594F84030DBB2012B54D0012384F8DE
:101AA800403000236364032384F841302368DA69F3
:101AB80012F4806F03D1DA6942F48062DA61638DCF
:101AC8009BB2002B31D0861C23680288DA60638DB4
:101AD800013B9BB263852B46012202212046FFF77A
:101AE80021FE30B923689A6812F0080F0AD13046EF
:101AF800E5E7636C43F0010363642046FFF775FE76
:101B080003201CE0002201929B680193019B0125A0
:101B180084F8415084F84020636C43F00403636404
:101B28002046FFF762FE284609E0012384F8413089
:101B3800002084F8400002E001207047012002B034
:101B480070BD0220FBE70220F9E790F841007047DA
:101B58007047000008B5E9B9436A9A1C42620268F6
:101B68001B88D360438D013B9BB24385438D9BB259
:101B78004BB90268536823F0A0031B041B0C536085
:101B8800438E9BB203B108BD012380F84130FFF7B3
:101B9800DFFFF8E7436A9A1C42621A880168134B10
:101BA80099421ED04FF04023DA60438D013B9BB22F
:101BB8004385438D9BB2002BE5D102680B4B9A42BB
:101BC80012D04FF04022536823F0A0035360438E95
:101BD8009BB2002BD7D1012380F84130FFF7B8FF23
:101BE800D1E7A3F58063DFE7014AECE7003800405E
:101BF8000034004008B5E9B90368DA68C36A991C7B
:101C0800C1621A80438E013B9BB24386438E9BB2CE
:101C18004BB90268536823F060031B041B0C536024
:101C2800438D9BB203B108BD012380F84130FFF713
:101C38008FFFF8E70268154B9A4222D04FF04023F5
:101C4800DA68C36A991CC1621A80438E013B9BB251
:101C58004386438E9BB2002BE5D102680B4B9A4218
:101C680012D04FF04022536823F060035360438D35
:101C78009BB2002BD7D1012380F84130FFF768FFD2
:101C8800D1E7A3F58063DBE7014AECE700380040C1
:101C98000034004010B584B0044603689A68039283
:101CA8007C4A93425DD04FF040218A680292DA69FB
:101CB80002F44072B2F5007F04D0DA6912F4407F72
:101CC80040F08180039A12F0020F03D05B6813F092
:101CD800800F48D1029B13F0010F09D022686D4B89
:101CE8009A4245D04FF040235B6813F0400F42D131
:101CF800029B13F0400F09D02268664B9A423FD0EE
:101D08004FF040235A6812F0200F3CD1039B13F088
:101D1800080F24D023685A6812F0200F1FD05A6881
:101D280022F0A0021204120C5A602268594B9A42FF
:101D380047D04FF04022536823F0600353600023DC
:101D4800019323689B680193019B012384F8413028
:101D5800636C43F0040363642046FFF746FD04B058
:101D680010BD4D49A1E700212046FFF7F3FEB1E77A
:101D7800A3F58063B8E701212046FFF73BFFB7E7EB
:101D8800A3F58063BEE75A6822F060025A602268B1
:101D9800536823F0A0031B041B0C5360002300931B
:101DA8002368DA6800929B680093009B012384F8FB
:101DB8004130636C43F0020363642046FFF715FD6E
:101DC800A4E7354AB7E7029B13F0020F03D04B682C
:101DD80013F0800F4FD1039B13F0010F04D0236839
:101DE8005B6813F0400F4BD1039B13F0400F1ED0DC
:101DF80023685A6812F0200F19D05A6822F060023E
:101E08001204120C5A602268224B9A423DD04FF0BD
:101E18004022536823F0A0035360012384F8413023
:101E2800636C43F0020363642046FFF7DEFC029B09
:101E380013F0080F93D02268164B9A4227D04FF020
:101E480040235A6812F0200F89D05A6822F0A00265
:101E58005A602268536823F060031B041B0C53600C
:101E6800012384F84130636C43F004036364204623
:101E7800FFF7BBFC73E701212046FFF76BFEAAE7DB
:101E880000212046FFF7B6FEAEE7034AC1E7A3F5F7
:101E98008063D6E70038004000340040002800F096
:101EA800BB8170B582B00446036813F0010F3BD0C4
:101EB800A74B9B6803F00C03042B2CD0A44B9B6806
:101EC80003F00C03082B21D06368B3F5803F4FD093
:101ED800B3F5A02F52D09E4B1A6822F480321A60B4
:101EE8001A6822F480221A606368002B50D0FEF72B
:101EF80031FB0546964B1B6813F4003F14D1FEF7DF
:101F080029FB401B6428F5D903208AE1904B5B68C4
:101F180013F4800FD8D08E4B1B6813F4003F03D006
:101F28006368002B00F07A81236813F0020F55D004
:101F3800874B9B6813F00C0F3ED0854B9B6803F0D2
:101F48000C03082B33D0E368002B68D0814B0122A7
:101F58001A60FEF7FFFA05467D4B1B6813F0020F67
:101F680054D1FEF7F7FA401B0228F5D9032058E1AF
:101F7800774A136843F480331360B5E7744B1A68E3
:101F880042F480221A601A6842F480321A60ABE781
:101F9800FEF7E0FA05466E4B1B6813F4003FC3D00A
:101FA800FEF7D8FA401B6428F5D9032039E1684BBD
:101FB8005B6813F4800FC6D1654B1B6813F0020FE2
:101FC80004D0E368012B01D001202AE1604A13689C
:101FD80023F0F803216943EAC1031360236813F06F
:101FE800080F40D0636963B35B4B01221A60FEF7A8
:101FF800B1FA0546564B5B6F13F0020F33D1FEF76B
:10200800A9FA401B0228F5D903200AE1504A1368AF
:1020180023F0F803216943EAC1031360DEE74D4B5F
:1020280000221A60FEF796FA0546494B1B6813F022
:10203800020FD3D0FEF78EFA401B0228F5D90320F1
:10204800EFE0454B00221A60FEF784FA0546404B44
:102058005B6F13F0020F06D0FEF77CFA401B0228D4
:10206800F5D90320DDE0236813F0040F79D0384B4D
:102078001B6C13F0805F33D100230193344B1A6C2F
:1020880042F080521A641B6C03F080530193019B49
:102098000125324B1B6813F4807F23D0A368012BE2
:1020A80034D0052B38D02A4B1A6F22F001021A6758
:1020B8001A6F22F004021A67A368002B36D0FEF7C5
:1020C80049FA0646224B1B6F13F0020F48D1FEF760
:1020D80041FA801B41F288339842F3D90320A0E0EB
:1020E8000025D6E71D4A136843F480731360FEF792
:1020F80031FA0646194B1B6813F4807FCED1FEF7E0
:1021080029FA801B0228F5D903208AE0104A136FA8
:1021180043F001031367CFE70D4B1A6F42F0040237
:102128001A671A6F42F001021A67C5E7FEF712FA3A
:102138000646074B1B6F13F0020F11D0FEF70AFA81
:10214800801B41F288339842F3D9032069E000BF2D
:102158000038024000004742800E474200700040AD
:10216800E5B9A369002B5BD0304A926802F00C02F3
:10217800082A58D0022B17D02D4B00221A60FEF7E0
:10218800E9F90446294B1B6813F0007F42D0FEF79B
:10219800E1F9001B0228F5D9032042E0234A136C19
:1021A80023F080531364DCE7214B00221A60FEF70A
:1021B800D1F905461D4B1B6813F0007F06D0FEF7CA
:1021C800C9F9401B0228F5D903202AE0E369226AED
:1021D8001343626A43EA8213A26A5208013A43EA45
:1021E8000243E26A43EA0263104A5360104B012239
:1021F8001A60FEF7AFF904460C4B1B6813F0007F1A
:1022080006D1FEF7A7F9001B0228F5D9032008E03C
:10221800002006E0002004E001207047012000E0D3
:10222800002002B070BD0120FBE700BF003802406B
:1022380060004742324B9B6803F00C03042B5CD0D0
:10224800082B01D02F4870472DE9F04B2C4B5A68CA
:1022580002F03F025B6813F4800F2BD0284B5B68B9
:10226800C3F388131E4600275C010025E41A65EBBA
:102278000705A90141EA9461A001001B61EB050172
:10228800CB0043EA5073C400A01943EB07014B028B
:1022980043EAD0534402204619460023FDF790FF35
:1022A800174B5B68C3F3014301335B00B0FBF3F0EA
:1022B800BDE8F08B124B5B68C3F388131E460027FA
:1022C8005C010025E41A65EB0705A90141EA946160
:1022D800A001001B61EB0501CB0043EA5073C40069
:1022E800A01943EB07018B0243EA9053840220466E
:1022F80019460023FDF764FFD2E70348704700BF83
:10230800003802400024F40000127A00002800F08F
:102318009D8070B504464F4B1B6803F00F038B423A
:1023280009D2CBB24B4A1370136803F00F038B42E8
:1023380001D0012070BD236813F0020F17D013F0ED
:10234800040F04D0444A936843F4E053936023682D
:1023580013F0080F04D0404A936843F46043936035
:102368003D4A936823F0F003A068034393600D4649
:10237800236813F0010F32D06368012B21D09A1E15
:10238800012A25D9344A126812F0020F60D0324966
:102398008A6822F0030213438B60FEF7DBF80646D7
:1023A8002D4B9B6803F00C036268B3EB820F16D0C9
:1023B800FEF7D0F8801B41F288339842F0D9032009
:1023C800B8E7254A126812F4003FE0D10120B1E7CE
:1023D800214A126812F0007FD9D10120AAE71D4BCB
:1023E8001B6803F00F03AB4209D9EAB2194B1A7004
:1023F8001B6803F00F03AB4201D001209AE7236862
:1024080013F0040F06D0144A936823F4E053E168EC
:102418000B439360236813F0080F07D00E4A9368A4
:1024280023F46043216943EAC1039360FFF702FF85
:10243800094B9B68C3F30313084AD35CD840084B85
:1024480018600020FEF73CF8002073E70120704771
:1024580001206FE7003C0240003802406832000863
:1024680010040020014B1868704700BF10040020BA
:1024780008B5FFF7F7FF044B9B68C3F38223034AB1
:10248800D35CD84008BD00BF00380240783200084D
:1024980030B583B00446036813F0050F06D12368EE
:1024A80013F0020F2ED1002003B030BD494B00229B
:1024B8001A60FEF74FF80546474B1B6813F0006F8C
:1024C80006D0FEF747F8401B0228F5D90320EBE7B2
:1024D8006268A3681B0743EA82133F4AC2F8843044
:1024E8003C4B01221A60FEF735F805463A4B1B684B
:1024F80013F0006FD3D1FEF72DF8401B0228F5D951
:102508000320D1E700230193334B1A6C42F0805229
:102518001A641B6C03F080530193019B2F4A1368C4
:1025280043F480731360FEF715F805462B4B1B68C0
:1025380013F4807F06D1FEF70DF8401B0228F5D969
:102548000320B1E7244B1B6F13F4407312D0E268E9
:1025580002F440729A420DD01F4B1A6F22F4407257
:102568001F4901200860002008601A671B6F13F0DC
:10257800010F13D1E36803F44072B2F5407F1ED017
:10258800154A936823F4F813936013490B6FE268B4
:10259800C2F30B0213430B67002085E7FDF7DAFF50
:1025A80005460D4B1B6F13F0020FE3D1FDF7D2FF69
:1025B800401B41F288339842F3D9032074E7064957
:1025C8008A6822F4F81223F0704323F4407313430B
:1025D8008B60DAE76800474200380240007000402C
:1025E800400E474201282AD1174B9B6813F4000379
:1025F80003D0012B25D115487047134B5B6813F4A2
:10260800800F14D0104B5B6803F03F031048B0FBF9
:10261800F3F00D4AD2F88430C3F3881300FB03F0BB
:10262800D2F88430C3F30273B0FBF3F07047064B63
:102638005B6803F03F030748B0FBF3F0E9E70020CD
:1026480070470020704700BF003802400080BB0080
:1026580000127A000024F40010B4036A046A24F01B
:1026680001040462846924F0F00444EA021223F0AD
:102678000A030B43826103625DF8044B704710B490
:10268800036A23F0100303628469036A24F4704424
:1026980044EA023223F0A00343EA01138261036291
:1026A8005DF8044B7047836823F0700341F007011D
:1026B80019438160704710B4846824F47F4442EA67
:1026C80003230B43234383605DF8044B70470223C5
:1026D80080F839300268136843F00103136001235E
:1026E80080F839300020704790F83830012B7DD0C1
:1026F80010B50446012380F83830022380F83930B9
:102708000268936823F47F4323F0770393600B6890
:10271800402B57D010D9702B3ED01FD8502B47D004
:10272800602B32D1CA6849680068FFF7A8FF6021AA
:102738002068FFF7B8FF28E0102B4DD008D9202BD0
:102748004FD0302B21D130210068FFF7ACFF1CE0BF
:10275800DBB900210068FFF7A6FF16E0B3F5805F3C
:102768000ED0B3F5005F10D1CB684A68896800685D
:10277800FFF7A1FF2268936843F48043936004E065
:102788000268936823F007039360012384F83930C3
:10279800002084F8380010BDCB684A688968006852
:1027A800FFF789FF2268936843F077039360ECE7AB
:1027B800CA6849680068FFF74FFF50212068FFF793
:1027C80072FFE2E7CA6849680068FFF745FF4021E1
:1027D8002068FFF768FFD8E710210068FFF763FF5C
:1027E800D3E720210068FFF75EFFCEE7022070479D
:1027F80003682E4A904212D0B0F1804F0FD0A2F554
:102808007C4290420BD002F58062904207D002F5DC
:102818008062904203D002F57842904203D123F0BF
:1028280070034A681343214A90422AD0B0F1804F7E
:1028380027D0A2F57C42904223D002F580629042D4
:102848001FD002F5806290421BD002F57842904278
:1028580017D002F57052904213D002F58062904270
:102868000FD002F5806290420BD0A2F598329042C8
:1028780007D002F58062904203D002F58062904250
:1028880003D123F44073CA68134303608B68C3629F
:102898000B688362054B984203D003F58063984226
:1028A80001D10B69036301234361704700000140B4
:1028B800A8B110B5044690F839305BB1022384F80A
:1028C8003930211D2068FFF793FF012384F8393040
:1028D800002010BD80F8383000F01CFCEEE7012025
:1028E800704790F83830012B22D030B4012280F89C
:1028F8003820022380F839300468636823F07003B5
:102908006360046863680D682B4363600468A368A8
:1029180023F08003A3600468A36849680B43A3609D
:1029280080F83920002380F83830184630BC7047CA
:1029380002207047F0B58BB0002400942D4B1A6B21
:1029480042F080021A631A6B02F080020092009A29
:1029580001941A6B42F001021A631A6B02F0010229
:102968000192019A02941A6B42F008021A631A6BD8
:1029780002F008020292029A03941A6B42F00402CF
:102988001A631A6B02F004020392039A04941A6BF6
:1029980042F002021A631B6B03F002030493049BC8
:1029A800154E224604213046FEF7F6F9134F22460B
:1029B8004FF210013846FEF7EFF901250595069408
:1029C800079405A93046FEF703F9042305930695F5
:1029D8000794089405A93046FEF7FAF84FF2100359
:1029E800059306950794089405A93846FEF7F0F86C
:1029F8000BB0F0BD0038024000000240000C02405D
:102A0800044A13780133DBB21370034A32F8130017
:102A1800704700BF300400200800002038B5204B64
:102A28005B7823B11E4B5B78012B1CD038BD1C4C46
:102A38006568FFF7E5FF1B4A22F815006368581C14
:102A480032F8131089B222F8101002336360B32BE6
:102A5800E8D90023636014490B7001236370134A9B
:102A680082F80032DEE70E4C6568FFF7C9FF104AAE
:102A780022F815006368581C32F8131089B222F83E
:102A8800101002336360B32BD0D900216160012399
:102A9800054803706170054A82F80032C6E700BF36
:102AA800300400209C040020980400200800002026
:102AB8004C06002000B585B08DF80C008DF80D107F
:102AC80064230093022303AA94210348FEF7F4FB2E
:102AD80005B05DF804FB00BF44040020F0B585B0E4
:102AE800012210215848FEF757F901210220FFF76B
:102AF800E1FFAF210420FFF7DDFF80210520FFF76C
:102B0800D9FF04AE062306F8043D504C6425009511
:102B18000123324694212046FEF7CEFB009501237F
:102B28000DF10D0294212046FEF788FC9DF80D302A
:102B380003F0200343F007038DF80D3000950223BE
:102B4800324694212046FEF7B7FB0E238DF80C3051
:102B580000950123324694212046FEF7ADFB0095EF
:102B680001230DF10D0294212046FEF767FC9DF824
:102B78000D3003F03F0343F0300323F008038DF8D2
:102B88000D3000950223324694212046FEF794FB2F
:102B980000210F20FFF78EFF00211A20FFF78AFF80
:102BA80000211B20FFF786FF99210020FFF782FFF5
:102BB80080214720FFF77EFF32278DF80C700095A3
:102BC8000123324694212046FEF776FB0095012327
:102BD8000DF10D0294212046FEF730FC9DF80D30D2
:102BE80063F07F038DF80D3000950223324694215F
:102BF8002046FEF761FB8DF80C70009501233246E4
:102C080094212046FEF758FB009501230DF10D0293
:102C180094212046FEF712FC9DF80D3003F07F0347
:102C28008DF80D3000950223324694212046FEF798
:102C380043FB00210846FFF73DFF9E210220FFF7D6
:102C480039FF05B0F0BD00BF000C0240440400206D
:102C5800FEE7000008B50C480C4B03600C4B4360C2
:102C680000238360C3604FF4804202614361836143
:102C7800C3610362FEF792FA00B908BD40F26F1112
:102C88000448FFF7E5FF00BF44040020005400405B
:102C9800A08601008032000808B50C480C4B036080
:102CA8004FF40072426000238360C36002614BF6F8
:102CB800803242618361C3610362FEF797FD00B908
:102CC80008BD40F283110348FFF7C2FFF007002058
:102CD800003C00408032000800B585B01748184B0A
:102CE80003604FF480334360002383600361836192
:102CF80003624FF08052C2624FF0C0628262C360CA
:102D08000122C26103634261FDF7C2FC60B901237D
:102D1800009301930023029369460848FDF710FECB
:102D280038B905B05DF804FB40F251110548FFF7CA
:102D38008FFF40F25B110348FFF78AFF040600206B
:102D4800002001408032000800B587B018484FF0D5
:102D580080430360AF234360002383600922C2607D
:102D68000361FFF7A5FDA0B906A94FF4805341F808
:102D7800103D0F48FFF7B8FC80B9202300930023CB
:102D8800019369460A48FFF7ACFD60B907B05DF8E2
:102D980004FB4FF4CB710748FFF75AFF4FF4CE718D
:102DA8000448FFF755FF40F2A3110248FFF750FF10
:102DB800B40700208032000800B599B000210191C5
:102DC800344B1A6C42F080521A641B6C03F0805327
:102DD8000193019B0291304B1A6842F480421A60B9
:102DE8001B6803F480430293029B01230C934FF466
:102DF80080330D93022312934FF48002139208221A
:102E080014924FF4A87215921693072317930CA8DF
:102E1800FFF744F878BB0F23079302230893002396
:102E280009934FF4A0530A934FF480530B93052151
:102E380007A8FFF76BFA18BB012303934FF48173BC
:102E480004930323059303A8FFF722FBE8B9FFF7D0
:102E580009FB124BA3FB00308009FDF78DFE04200F
:102E6800FDF7A0FE002211464FF0FF30FDF744FEAB
:102E780019B05DF804FB4FF48B710948FFF7E8FEC1
:102E88004FF492710648FFF7E3FE4FF49671044839
:102E9800FFF7DEFE0038024000700040D34D62109C
:102EA8008032000808B5FDF72FFBFFF785FFFFF715
:102EB80041FDFFF7CFFEFFF7EFFEFFF70DFFFFF72E
:102EC80043FFFFF70BFE2148FDF70CFC2048FFF7F6
:102ED800FEFB0EE01F4B93F8013253B91D4B022243
:102EE80083F800221C4B1B78C3B11B4B1B78012BAA
:102EF8001FD01A48FEF729FE032803D0154B0022DD
:102F080083F80122134B93F80032002BE2D0012BF7
:102F1800EFD1104B002283F80022EAE70123B42204
:102F28000F490E48FEF798FD0A4B012283F801224B
:102F3800DBE70C490C4B99600123B4220748FEF7E4
:102F48008BFD044B012283F80122D2E704060020FE
:102F5800B40700200800002098040020F007002093
:102F68009C0400204C0600203004002010B582B0DC
:102F780000240094214B5A6C42F480425A645A6CE3
:102F880002F480420092009A01941A6C42F0805236
:102F98001A641B6C03F080530193019B0320FDF717
:102FA80099FD224621466FF00B00FDF7A5FD22464C
:102FB80021466FF00A00FDF79FFD224621466FF07B
:102FC8000900FDF799FD224621466FF00400FDF740
:102FD80093FD224621466FF00300FDF78DFD224642
:102FE80021466FF00100FDF787FD224621464FF08C
:102FF800FF30FDF781FD02B010BD00BF0038024070
:103008000268134B9A4200D0704710B586B000246E
:10301800009403F58C335A6C42F480725A645B6CEA
:1030280003F480730093009B02230193032302930C
:10303800039401A90748FDF7CBFD2246214612203B
:10304800FDF75AFD1220FDF78BFD06B010BD00BF3D
:1030580000200140000002400268114B9A4200D053
:10306800704710B586B04FF4107301931223029382
:103078000123039300240494042305930DEB030117
:103088000848FDF7A5FD0094074B1A6C42F400129E
:103098001A641B6C03F400130093009B06B010BD68
:1030A8000054004000040240003802400268164BF9
:1030B8009A4200D07047F0B587B00024009403F519
:1030C800FE331A6C42F400421A641B6C03F400438A
:1030D8000093009B10230193022702970394012673
:1030E80004960625059501A90848FDF771FD4FF4DA
:1030F800A4530193029703940496059501A90448E3
:10310800FDF766FD07B0F0BD003C0040000002403E
:10311800000802400368B3F1804F00D0704782B0C6
:1031280000230193054B1A6C42F001021A641B6CD0
:1031380003F001030193019B02B07047003802407D
:103148007047704708B5FDF7F9F9FDF73CFD08BD74
:1031580008B50248FDF74CFB08BD00BF0406002077
:103168000F49D1F8883043F47003C1F888300D4B0B
:103178001A6842F001021A60002098601A6822F06A
:10318800847222F480321A60074A5A601A6822F45C
:1031980080221A60D8604FF000638B60704700BFD0
:1031A80000ED00E00038024010300024DFF834D091
:1031B800002103E00C4B5B58435004310B480C4B87
:1031C80042189A42F6D30B4A02E0002342F8043B25
:1031D800094B9A42F9D3FFF7C3FF00F011F8FFF744
:1031E80061FE704700000220A032000800000020A5
:1031F800140400201404002038080020FEE7000012
:1032080070B50D4E0D4CA41BA4100025A54209D184
:103218000B4E0C4C00F018F8A41BA4100025A54276
:1032280005D170BD56F8253098470135EEE756F8B8
:10323800253098470135F2E798320008983200089F
:10324800983200089C320008F8B500BFF8BC08BCEA
:103258009E467047F8B500BFF8BC08BC9E4670474C
:10326800000000000000000001020304060708092E
:1032780000000000010203042E2E2F5372632F6DED
:0832880061696E2E6300000075
:0832900068CFFF7F0100000080
:04329800AD0100087C
:04329C00890100089C
:1032A00001000000100000000000240347066A0926
:1032B0008B0CAB0FC812E215F8180B1C191F232238
:1032C000282526281F2B112EFB30DE33BA368C39E9
:1032D000563C173FCE417A441C47B4493F4CBF4E41
:1032E00033519B53F5554258825AB45CD75EEC601B
:1032F000F262E864CF66A6686D6A246CCA6D5F6F7F
:10330000E2705572B573047541766C7784788A796A
:103310007D7A5D7B297CE37C8A7D1D7E9D7E097F95
:10332000627FA77FD87FF67FFF7FF67FD87FA77F5A
:10333000627F097F9D7E1D7E8A7DE37C297C5D7B8B
:103340007D7A8A7984786C7741760475B573557285
:10335000E2705F6FCA6D246C6D6AA668CF66E86420
:10336000F262EC60D75EB45C825A4258F5559B53CA
:103370003351BF4E3F4CB4491C477A44CE41173FAE
:10338000563C8C39BA36DE33FB30112E1F2B2628E3
:1033900028252322191F0B1CF818E215C812AB0FA1
:1033A0008B0C6A09470624030000DCFCB9F996F689
:1033B00075F355F038ED1EEA08E7F5E3E7E0DDDDEB
:1033C000D8DADAD7E1D4EFD105CF22CC46C974C61A
:1033D000AAC3E9C032BE86BBE4B84CB6C1B341B1A2
:1033E000CDAE65AC0BAABEA77EA54CA329A1149FA8
:1033F0000E9D189B31995A979395DC933692A19024
:103400001E8FAB8D4B8CFC8ABF8994887C87768617
:103410008385A384D7831D837682E3816381F780CC
:103420009E80598028800A8000800A8028805980E8
:103430009E80F7806381E38176821D83D783A38496
:10344000838576867C879488BF89FC8A4B8CAB8D7C
:103450001E8FA1903692DC9393955A973199189BC1
:103460000E9D149F29A14CA37EA5BEA70BAA65ACF7
:10347000CDAE41B1C1B34CB6E4B886BB32BEE9C0F3
:10348000AAC374C646C922CC05CFEFD1E1D4DAD79E
:10349000D8DADDDDE7E0F5E308E71EEA38ED55F0C0
:1034A00075F396F6B9F9DCFC020100000008320859
:1034B00064089608C808FA082C095E098F09C00933
:1034C000F109220A520A820AB10AE00A0F0B3D0BE7
:1034D0006B0B980BC50BF10B1C0C470C710C9A0C69
:1034E000C30CEB0C120D390D5F0D830DA70DCA0D2A
:1034F000ED0D0E0E2E0E4E0E6C0E8A0EA60EC10E89
:10350000DC0EF50E0D0F240F3A0F4F0F630F760FE1
:10351000870F980FA70FB50FC20FCD0FD80FE10F70
:10352000E90FF00FF50FF90FFD0FFE0FFF0FFE0F64
:10353000FD0FF90FF50FF00FE90FE10FD80FCD0FC9
:10354000C20FB50FA70F980F870F760F630F4F0F9E
:103550003A0F240F0D0FF50EDC0EC10EA60E8A0ECB
:103560006C0E4E0E2E0E0E0EED0DCA0DA70D830D18
:103570005F0D390D120DEB0CC30C9A0C710C470C3E
:103580001C0CF10BC50B980B6B0B3D0B0F0BE00AE2
:10359000B10A820A520A220AF109C0098F095E099A
:1035A0002C09FA08C8089608640832080008CD07F4
:1035B0009B07690737070507D306A10670063F0674
:1035C0000E06DD05AD057D054E051F05F004C204A0
:1035D000940467043A040E04E303B8038E036503FE
:1035E0003C031403ED02C602A0027C02580235021D
:1035F0001202F101D101B1019301750159013E019E
:1036000023010A01F200DB00C500B0009C00890024
:103610007800670058004A003D00320027001E0075
:1036200016000F000A000600020001000000010061
:10363000020006000A000F0016001E0027003200DC
:103640003D004A0058006700780089009C00B000E7
:10365000C500DB00F2000A0123013E01590175019A
:103660009301B101D101F1011202350258027C022D
:10367000A002C602ED0214033C0365038E03B803E7
:10368000E3030E043A0467049404C204F0041F0523
:103690004E057D05AD05DD050E063F067006A1064B
:1036A000D3060507370769079B07CD070001000010
:0436B0000024F400FE
:04000005080031B509
:00000001FF
